:020000040800F2
:100000006804002001010008A3150008DD130008A2
:10001000A11500088D070008631900080000000002
:100020000000000000000000000000002D16000885
:100030008F07000800000000A515000889160008B9
:100040001B0100081B0100081B0100081B01000820
:100050001B0100081B0100081B0100081B01000810
:100060001B0100081B0100081B0100081B01000800
:100070001B0100081B0100081B0100081B010008F0
:100080001B0100081B0100081B0100081B010008E0
:100090001B0100081B0100081B01000825080008BF
:1000A0001B0100081B0100081B0100081B010008C0
:1000B0001B0100081B0100081B0100081B010008B0
:1000C0001B0100081B0100081B0100081B010008A0
:1000D0001B0100081B0100081B0100081B01000890
:1000E0001B0100081B0100081B010008DFF80CD0F1
:1000F00000F03AFB00480047B91A000868040020E5
:100100000648804706480047FEE7FEE7FEE7FEE7B1
:10011000FEE7FEE7FEE7FEE7FEE7FEE7E51600087E
:10012000ED000008202A04DB203A21FA02F0002129
:10013000704721FA02F3D040C2F1200291400843F7
:1001400019467047D2B201E000F8012B491EFBD2DC
:1001500070470022F6E710B513460A4604461946D2
:10016000FFF7F0FF204610BDF0B480EA0102D40F83
:100170004200B2EB410F02D20246084611464A0045
:1001800042D0C30DDDB2C1F3C752AD1A202D35DA0E
:10019000C1F3160141F4000204B15242C5F1200638
:1001A00002FA06F12A411044B3EBD05F23D0C4B168
:1001B000012DA0EBC35009DCF0BC4FF0004202EA75
:1001C000C352DBB200F5000000F043BA400000F17A
:1001D000807000EBC350A0F1807040EAD1704900FC
:1001E00009E0490841EAC071A0EBC35000F50000E6
:1001F000400800EBC350F0BC00F022BA614201227B
:1002000002EB4101001BF6E7F0BC704781F00041B2
:10021000AAE780F00040A7E780EA010210B502F0EB
:100220000043400022D04A001FD0010E01EB1261B2
:10023000C0F35600C2F3560240F4000042F400023C
:10024000A0FB022000047F39140400D0401C50EAB7
:10025000124001D44000491EC2B20C0604EBD0107B
:10026000401C4008802A02D003E0002010BD20F08E
:100270000100002900DA0020184310BD30B480EAE4
:10028000010202F0004530F0004221F0004013D09E
:1002900090B1C30DD40DC2F31601C0F31600E41AD9
:1002A00041F4000140F400027D34914201D3641C0A
:1002B00000E04900002C02DA30BC002070474FF407
:1002C00000000023914201D3891A034340084FEAFA
:1002D0004101F7D151B1914202D14FF0004105E007
:1002E00002D24FF0010101E06FF0010103EBC450B5
:1002F000284430BC00F0A4B92DE9FE4F804681EAC5
:100300000300C00F0C46009021F0004123F000458F
:10031000B8EB0200A94105D24046214690461C4652
:100320000B46024623F00040104347D0270DC7F389
:100330000A00C3F30A510290401A019040286BDA78
:10034000C3F3130040F4801B0098924620B10023B1
:10035000D2EB030A63EB0B0B01985946C0F1400244
:10036000504600F04CF906460D4650465946019A53
:1003700000F054F910EB08006141002487EA1152A3
:1003800084EAE7731A4340D0009A62B3019A012AC3
:100390004FEA075215DC001B61EB02014FF00042EF
:1003A00002EA0752CDE90042001C41F580113246B5
:1003B0002B4600F08BF903B0BDE8F08F4046214694
:1003C000F9E7001B61EB0201001C41F580130018E6
:1003D0005B412018A2F5001747EB030140EAD570F6
:1003E000B6196D4111E06D084FEA360645EAC07551
:1003F0004FEA0752001B61EB0201001C41F580111E
:1004000049084FEA30000019514132462B4603B0EB
:10041000BDE8F04F00F04BB90098012240000023E6
:10042000D0EB020263EBE073009821464FEAE074E0
:10043000B8EB000061EB0401E9E783F000435BE700
:1004400081F0004158E72DE9FE4F81EA030404F0F2
:10045000004421F0004100944FF0000B23F00043D2
:1004600050EA01045ED052EA03045BD0C3F30A549D
:10047000C1F30A552C44A4F2F3340194A0FB0254B6
:10048000C1F3130141F48011C3F3130343F4801348
:1004900001FB024400FB034E840A970A44EA81549C
:1004A00047EA8357A4FB076802958D0A05FB078579
:1004B0004FEA932C04FB0C542705029D4FEA065883
:1004C00047EA1637B5EB08056EEB070C870E920E60
:1004D00047EA811742EA8312A7FB0201B6EB0B0140
:1004E00064EB00042B0D43EA0C335E1844EB1C5004
:1004F000DA465146E7FB0201C5F313044FEA0B331A
:1005000043EA14534FEA0432019C43EA0603A4F180
:100510000C040294009CCDE900B400F0D7F803B0BD
:10052000BDE8F08F00200146F9E7C10F80EAE070D6
:100530000844CA079623002100F08BB896230022B6
:10054000114600F086B800F0004220F00040C10DD6
:10055000C0F3160040F400007F2901DA0020704744
:10056000962903DCC1F19601C84001E09639884024
:10057000002AF4D04042704720F00040C10DC0F383
:10058000160040F400007F2901DA00207047962908
:1005900003DCC1F19601C840704796398840704726
:1005A00000F0004230F000400AD0C10D01F560714A
:1005B000C0F3160042EA0151C208400711437047D8
:1005C00000200146704701F0004330B421F00041A3
:1005D00050EA010206D00A0DA2F56072C1F31301C0
:1005E000002A02DC30BC00207047440F44EAC104FA
:1005F000C100E01830BC00EBC25000F021B8202A46
:1006000004DB203A00FA02F1002070479140C2F169
:10061000200320FA03F3194390407047202A06DB99
:10062000CB17203A41FA02F043EAE07306E041FAC0
:1006300002F3D040C2F120029140084319467047AE
:100640000029A8BF7047401C490008BF20F00100E6
:10065000704710B4B0FA80FC00FA0CF050EA0104C4
:1006600004BF10BC704749B1CCF1200421FA04F456
:1006700011FA0CF118BF012121430843A3EB0C012F
:10068000CB1D4FEA00614FEA102042BF002010BC92
:10069000704700EBC35010440029A4BF10BC704742
:1006A000401C490008BF20F0010010BC704710B585
:1006B000141E73F1000408DA401C41F10001921885
:1006C0005B411A4301D120F0010010BD2DE9F04D2E
:1006D00092469B4611B1B1FA81F202E0B0FA80F283
:1006E00020329046FFF78BFF04460F4640EA0A008F
:1006F00041EA0B0153465A46084313D0114653EAC8
:10070000010019D0C8F140025046FFF70BFD054625
:100710000E46504659464246FFF771FF084305D042
:10072000012004E020463946BDE8F08D0020054355
:1007300046EAE0762C4337430A986305E40AA0EBC7
:1007400008000022FD0A44EA47540A3002D500207E
:100750000146E9E7010510196941DDE9084500197D
:100760006941BDE8F04DA2E7064C074D06E0E068A0
:1007700040F0010394E8070098471034AC42F6D3E8
:10078000FFF7B8FCA81B0008C81B0008FEE770476D
:10079000032807D80122824005480029017802D0A9
:1007A0000A4302707047914301F00F0101707047D6
:1007B0000C000020094A916803290CD0491C084804
:1007C000064B91605B1C405C595C127842EA012147
:1007D000084300F02DBF0021F1E700000C000020CD
:1007E000141B000830B50D4A00210D4C1160037830
:1007F000002B11D02E2B06D1531813F8015D45F0B4
:1008000020051D70401C535C10F8015B655D2B4397
:100810005354491C0429EADB30BD00000D000020C0
:10082000181B0008402000F015B8704770B504464A
:1008300000F012F90546601C02D004480078044418
:1008400000F00AF9401BA042FAD370BD1800002046
:1008500070470000044910B50A68024202D00860DF
:10086000FFF7F6FF10BD0000140401402DE9F84F1A
:10087000DFF8B891002409F1040A0AF1040B2346B9
:100880000F270BF1040EC9E00125A5402A40AA421A
:100890007DD1674ED1F804C0ACEB0608B44532D028
:1008A00014DCBCF1030F3AD009DCBCF1000F2AD0F4
:1008B000BCF1010F1CD0BCF1020F31D11DE0BCF125
:1008C000110F17D0BCF1120F2AD119E0B8F5881F0B
:1008D00019D006DCB8F5803F15D0B8F5801F1FD1C0
:1008E00011E0B8F5001F0ED0B8F5041F18D10AE0CA
:1008F000CB6815E0CB681B1D12E0CB6808330FE016
:10090000CB680C330CE08B682BB1012B4FF0080344
:1009100003D0456104E0042302E0056100E0002308
:10092000FF2A01D8064601E000F104064FEA8405DB
:1009300001D9A5F12005D6F8008007FA05FC28EAC0
:100940000C0803FA05F548EA0508C6F800804D686A
:10095000ED0062D5374DAE6946F00106AE61AD6976
:1009600024F0030605F001050095334D06EB050C58
:10097000DCF80850A607360F07FA06F825EA08053E
:10098000DFF8B880404503D14FF0000817E044E09D
:10099000DFF8AC80404502D14FF001080FE0DFF8EE
:1009A000A480404502D14FF0020808E0DFF89880AB
:1009B000404502D14FF0030801E04FF0040808FA67
:1009C00006F848EA0508CCF808804D68D9F80060B8
:1009D000ED034D4601D5164300E096432E604D6869
:1009E000DAF80060AD03554601D5164300E09643A2
:1009F0002E604D68DBF80060ED025D4601D51643C0
:100A000000E096432E604D68DEF80060AD0275464A
:100A100001D5164300E096432E60641C0D682A46FB
:100A2000E5407FF431AFBDE8F88F000000040140DD
:100A300000001110001002400000014000080140B9
:100A4000000C014000100140001401400AB1016196
:100A500070470904FBE70000014880687047000008
:100A600018000020024881680278114481607047B4
:100A700018000020074810B5016841F0100101601E
:100A8000032000F075F8002000F006F800F024F8CC
:100A9000002010BD0020024070B50D4D04464FF4FB
:100AA0007A712878B1FBF0F00A490968B1FBF0F0DF
:100AB00000F0E8FA48B9102C07D200222146501E57
:100AC00000F036F800206C6070BD012070BD0000A1
:100AD00018000020240000200C4808B5816941F06E
:100AE00001018161816901F001010091C16941F059
:100AF0008051C161C06900F0805000900448416895
:100B000021F0E06141F00071416008BD0010024039
:100B100000000140002809DB00F01F020121914084
:100B20004009800000F1E020C0F80011704700008B
:100B3000F0B40E4B1B680C46C3F30223C3F1070548
:100B4000042D00D90425191D072901D2002300E036
:100B5000DB1E012606FA05F1491E214099409E4000
:100B6000761E16403143F0BC00F0FCBE0CED00E0F8
:100B7000064900F0070208684FF6FF03184040EAF4
:100B80000220034A10430860704700000CED00E0AB
:100B90000000FA052DE9F0470F46050061D0434EED
:100BA000306800F00700B84209D2306820F0070032
:100BB00038433060306800F00700B84251D12868EF
:100BC0003B4C810712D5400703D5606840F4E060D4
:100BD00060602878000703D5606840F4605060606A
:100BE0006068A96820F0F000084360602878C007BA
:100BF00028D06868012810D02168022810D0890701
:100C000000292EDA616821F0030101436160FFF7DA
:100C100023FF804641F288390DE021688903EFE720
:100C20008901EDE7FFF718FFA0EB0801494502D95C
:100C30000320BDE8F0876068696800F00C00B0EB45
:100C4000810FEFD1306800F00700B8420BD930684F
:100C500020F0070038433060306800F00700B842E9
:100C600001D00120E5E72878400705D56068E968EC
:100C700020F4E060084360602878000706D56068CB
:100C8000296920F4605040EAC100606000F018F863
:100C90006168084AC1F30311515CC8400649086005
:100CA00006480068FFF7F8FE0020C2E70020024077
:100CB00000100240981B0008240000201C000020A7
:100CC00012A185B00FC98DE80F0014A0144A006866
:100CD00004905168134801F00C03042B10D0082B2A
:100CE0000ED1C1F38343C9031DF803000AD551682F
:100CF00004AAC1F34041515C0A4A5043B0FBF1F0F1
:100D000005B0704708494843FAE7000002030405AC
:100D1000060708090A0B0C0D0E0F10100102000047
:100D20000010024000127A0000093D002DE9F84F42
:100D3000040070D02078C04DC00749D06868C0F367
:100D40008100012807D06868C0F38100022809D11A
:100D50006868C00306D52868800339D56068002814
:100D6000E7D035E06068B0F5803F0BD010B1B0F54A
:100D7000A02F11D0286820F480302860286820F443
:100D8000802002E0286840F480302860606890B1DC
:100D9000FFF762FE06460AE0286840F480202860DB
:100DA000F0E700BFFFF758FE801B642873D828685F
:100DB0008003F7D50CE0FFF74FFE064605E000BFC5
:100DC000FFF74AFE801B6428F0D828688003F7D418
:100DD00020789A4E80074FF001094FF0000839D56E
:100DE000686810F00C0F07D06868C0F38100022813
:100DF00009D16868C00306D42868800714D5206923
:100E0000012808D110E02069B0B1C6F80090FFF7C2
:100E100023FE074605E00AE1FFF71EFEC01B02287D
:100E2000C4D828688007F7D52868616920F0F800E1
:100E300040EAC10028600DE0C6F80080FFF70CFE14
:100E4000074604E0FFF708FEC01B022823D82868E5
:100E50008007F7D4207800072CD57948A169D9B14B
:100E6000C0F80090FFF7F8FD074604E0FFF7F4FD37
:100E7000C01B02280FD8686A8007F7D571484FF465
:100E8000FA510068B0FBF1F0009000BF0098411EDD
:100E90000091FAD20EE080E0C0F80080FFF7DCFDA0
:100EA000074604E0FFF7D8FDC01B022875D8686A22
:100EB0008007F7D42078400760D5E8690027C00094
:100EC00008D4E86940F08050E861E869012700F043
:100ED000805000905C480168C90513D401688346BE
:100EE00041F480710160FFF7B7FD824606E000BF64
:100EF000FFF7B2FDA0EB0A0064284ED8DBF8000033
:100F0000C005F5D5E06801280AD008B1052813D03E
:100F1000286A20F001002862286A20F0040002E01C
:100F2000286A40F001002862E06841F2883B98B1ED
:100F3000FFF792FD82460BE0286A40F00400286229
:100F4000EEE700BFFFF788FDA0EB0A0159455AD82C
:100F5000286A8007F6D50CE0FFF77EFD824605E0A3
:100F6000FFF77AFDA0EB0A0159454CD8286A8007A3
:100F7000F6D41FB1E86920F08050E861E06988B3D9
:100F80006968C1F38101022944D00228C6F8608053
:100F900004D0FFF761FD044638E034E0FFF75CFD64
:100FA000074604E0FFF758FDC01B02282BD828682D
:100FB0008001F7D4206AB0F5803F05D16868A16848
:100FC00020F4003008436860D4E9080108436968E8
:100FD00021F4741108436860C6F86090FFF73CFD87
:100FE000044606E025E000BFFFF736FD001B02289F
:100FF00009D828688001F7D51BE000BFFFF72CFD5A
:10100000001B022802D90320BDE8F88F2868800160
:10101000F4D40EE00128F7D06868226A00F4803129
:10102000914204D1616A00F47010884201D001201D
:10103000EAE70020E8E7000000100240000042421A
:1010400080044242240000200070004010B5FFF7E9
:10105000B1FBFFF701FD0A21B0FBF1F04FF4B471D1
:10106000B0FBF1F201FB1200FFF768FA044A1060CE
:10107000106851689268BDE8104000F094BA000012
:101080000000002010B5401EB0F1807F01D3012088
:1010900010BD4FF0E02460610F21601700F062FC8A
:1010A0000020A06107202061002010BD10B5FFF7CF
:1010B000CDFF10BD70B590F83C20012A19D0012455
:1010C00000F83C4F0222427050F83C3C5A689D6840
:1010D00022F070060A684968324325F080052943EA
:1010E0005A6050F83C2C9160447000210170084611
:1010F00070BD022070BD10B5040003D094F83D000F
:1011000010B107E0012010BD002084F83C0020460B
:1011100000F00CF8022084F83D00211D206800F04A
:1011200005FB012084F83D00002010BD08B50068D3
:101130000649884208D10648C16941F00201C161EF
:10114000C06900F00200009008BD000000040040EB
:101150000010024070B5044690F83C00012817D0FA
:10116000012584F83C50022084F83D002068826804
:1011700022F0770222F47F4282600868502830D043
:101180000DDC20284DD005DC98B310283BD148E079
:10119000022070BD302844D0402834D139E0602886
:1011A00028D0702806D0B0F5805F2CD0B0F5005F55
:1011B00029D10AE0CB68D1E90121206800F0F9FAD1
:1011C0002068816841F0770109E0CB68D1E901210D
:1011D000206800F0EEFA2068816841F48041816067
:1011E00011E0CA684968206800F098FB5021206827
:1011F00007E016E0CA684968206800F0A0FB60219B
:10120000206800F0E0FA84F83D50002084F83C00AB
:1012100070BDCA684968206800F080FB40212068E2
:10122000EFE7226801461046EBE7000010B586B0F4
:1012300000210091019102910391006813498842B5
:1012400021D11348816941F004018161816901F074
:1012500004010491816941F00801816180690224DF
:1012600000F0080004908020CDE900046946094898
:101270000394FFF7FBFA0320CDE900046946064812
:101280000394FFF7F3FA06B010BD0000000400401D
:101290000010024000080140000C014070B50446F7
:1012A00090F83C000D4601280DD0012684F83C60E2
:1012B000022084F83D0042B1042A18D0082A2AD01E
:1012C0000C2A4DD139E0022070BD206800F084FA6C
:1012D0002068816941F0080181612068816921F0FD
:1012E00004018161206881692A69114311E0206845
:1012F00000F09AFA2068816941F4006181612068F8
:10130000816921F480618161206881692A6941EAEB
:101310000221816124E0206800F0B2FA2068C169EE
:1013200041F00801C1612068C16921F00401C16177
:101330002068C1692A69114311E0206800F0CCFAE5
:101340002068C16941F40061C1612068C16921F46C
:101350008061C1612068C1692A6941EA0221C161D5
:1013600084F83D60002084F83C0070BD10B5040096
:1013700003D094F83D0010B107E0012010BD00201B
:1013800084F83C00204600F00CF8022084F83D0070
:10139000211D206800F0CAF9012084F83D000020DA
:1013A00010BD704710B504460068012200F0F4F942
:1013B00009492068884203D1416C41F400414164ED
:1013C0002068816801F00701062903D0016841F017
:1013D00001010160002010BD002C0140FEE700006B
:1013E0002DE9F04385B000243C4800940194029418
:1013F0000394816941F020018161816901F020013C
:101400000491816941F004018161816901F0040165
:101410000491816941F0080181618069DFF8C09021
:1014200000F008000490002241F288314846FFF79E
:101430000DFBDFF8B0804FF40147002239464046EB
:10144000FFF704FB63200325CDE90005694640460C
:10145000FFF70CFA41F208000126CDE900066946C3
:101460004846CDE90245FFF701FA4FF4604000908D
:1014700002200190694603954846FFF7F7F9CDE948
:10148000007669464046CDE90245FFF7EFF9202096
:10149000CDE90004694648460294FFF7E7F9402089
:1014A00000901148CDE9010469464846FFF7DEF98E
:1014B0004FF46070009001AA112082E83100694663
:1014C0004846FFF7D3F9002201211720FFF730FB30
:1014D0001720FFF71FFB05B0BDE8F08300100240A6
:1014E000000C0140000801400000111010B58EB042
:1014F00000240794089409940A940B941C216846CC
:101500000C94FEF726FE25482349C0E90014FF216C
:10151000C0E9024104618461FFF7EDFD08B1FFF706
:1015200084F94FF48050079007A91C48FFF712FE7A
:1015300008B1FFF77AF91948FFF718FF08B1FFF76C
:1015400074F90B940BA915480C94FFF7B3FD08B17F
:10155000FFF76BF96020CDE900040294042269468C
:101560000E480494FFF79AFE08B1FFF75EF90822CF
:1015700069460A48FFF792FE08B1FFF756F90C22B8
:1015800069460648FFF78AFE08B1FFF74EF903489F
:10159000FFF74CFE0EB010BD0004004028000020F4
:1015A000FEE7704770470EB513460A460146684687
:1015B00000F0F8F99DE8070000F014F80EBD0000F7
:1015C00010B504210648FFF7EDFE08210448FFF797
:1015D000E9FEBDE810400C210148FFF7E3BE000022
:1015E0002800002070B505460E4E084614463146C8
:1015F000FEF712FEFEF7C0FF0B4908602046314699
:10160000FEF70AFEFEF7B8FF0749091D08602846E5
:101610003146FEF701FEFEF7AFFF034908310860CF
:1016200070BD00000000C842380400407047000050
:10163000F8B514494FF0800CC1F800C000224E15D7
:101640008B1515460C1F0B60009500BF009F7F1C7B
:101650000097102FF9DB070401D5266000E00E602B
:1016600040002360521C102AEDDBC4F800C0009536
:1016700000BF0098401C00901028F9DB0B60C1F8F7
:1016800000C0F8BD140C014010B5FFF7EBF9BDE840
:101690001040FFF70BBD30B58FB028216846FEF72C
:1016A00058FD14210AA8FEF754FD01210804CDE9D4
:1016B00000100024029402250491CDE907504FF454
:1016C000E01009906846FFF731FB0F20CDE90A05CD
:1016D0006802CDE90C4002210AA80E94FFF75AFADD
:1016E0000FB030BD0D48016841F001010160416853
:1016F0000B4A1140416001680A4A114001600168CB
:1017000021F480210160416821F4FE0141604FF421
:101710001F0181600449C003086070470010024047
:101720000000FFF8FFFFF6FE08ED00E0F0B50268EC
:10173000164B174C174D4FF08047984205D0B842D2
:1017400003D0A04201D0A84203D122F070064A681B
:101750003243984205D0B84203D0A04201D0A842FB
:1017600003D122F44074CA6822434C6922F08002FB
:10177000224302608A68C2620A688262984201D18A
:101780000969016301214161F0BD0000002C0140A5
:10179000000400400008004010B501F01F030121C3
:1017A000046A99408C430462016A9A4011430162C1
:1017B00010BD10B5846842EA032224F47F440A4332
:1017C0002243826010BD826822F070020A4342F018
:1017D000070181607047000030B5026A22F0010203
:1017E0000262026A4368846924F073050C682C4322
:1017F00022F002058A682A430A4DA8420BD122F042
:101800000805CA6823F440732A434D6922F0040294
:101810001D438B692B4343608461496841630262C5
:1018200030BD0000002C014030B5026A22F01002E9
:101830000262026A436884690D6824F4E64444EA5B
:1018400005248D6822F0200242EA05120B4DA842C1
:101850000ED1CD6822F0800242EA05124D6923F4D0
:10186000406343EA85038D6922F0400243EA850321
:101870004360846149688163026230BD002C01408D
:1018800030B5026A22F480720262036A4268C46957
:1018900023F4007324F073050C682C438D6843EA2D
:1018A00005230C4DA8420ED1CD6823F4006343EA12
:1018B00005234D6922F4405242EA05128D6923F452
:1018C000806342EA05124260C4614968C1630362F1
:1018D00030BD0000002C014030B5026A22F4805275
:1018E0000262046A4268C3690D6823F4E64343EA6E
:1018F00005238D6824F4005444EA0534064DA842BB
:1019000004D14D6922F4804242EA85124260C361EB
:1019100049680164046230BD002C014010B5036ABF
:10192000046A24F001040462846924F0F00444EAA7
:10193000021423F00A020A438461026210BD10B54A
:10194000036A23F0100303628369046A23F470437B
:1019500043EA023224F0A00343EA011182610162EA
:1019600010BDFEE70907090E002804DB00F1E020A6
:1019700080F80014704700F00F0000F1E02080F8BC
:10198000141D704702E008C8121F08C1002AFAD1CE
:1019900070477047002001E001C1121F002AFBD1EF
:1019A000704700002DE9FE4F17461C468346B2F5EE
:1019B000000F02DA0460446073E008463B49884245
:1019C00000DB00203A49FEF759FC0546FEF7BBFD57
:1019D0000190FEF7AAFD2946FEF71BFC8246384619
:1019E000FEF7DEFD80460022324B0291FEF728FD15
:1019F000054689462046FEF7D3FD06462A464B4655
:101A00000091FEF720FDFEF7DEFD05463846514603
:101A1000FEF702FCFEF7C4FD0022264BFEF710FD88
:101A200002460B4630460099FEF70DFDFEF7CBFD52
:101A300007465046FEF7B4FD00221E4BFEF700FDA0
:101A400002460B4640460299FEF7FDFC0022194B68
:101A5000FEF7F6FC02460B4630460099FEF7F3FC13
:101A6000FEF7B1FD02460198052815D2DFE800F027
:101A700003060A0E11002046114601E038462146B1
:101A80002C460CE021462846144608E028463946F4
:101A900005E01046294602E0204629463C46CBE9AF
:101AA0000001CBF80840BDE8FE8F00000000B44301
:101AB000000070420000F03F08B5FEF7DBFFFFF7C3
:101AC000EAFDFFF78DFCFFF711FD6420FEF7AEFE87
:101AD000FFF776FD0CA0FEF785FE0DA0012500683E
:101AE0006E464FF49677009000242946305DFEF74D
:101AF0004FFE3846FEF79AFE641C042CF5DB0DB150
:101B00000025F1E70125EFE735322E3330000000E4
:101B10000302000170B0D0E00000000000000000EF
:101B200000000000000000000000000000000000B5
:101B300000000000000000000000000000000000A5
:101B40000000000000022000DD09D39B0F9EDE197B
:101B5000DF9F000000820000005FCEC2CBD6569F00
:101B60004E40895EC44B4ACA571F429EC6C8CDCF5D
:101B70004F8F430000000080005FCEC2CBD6569F3F
:101B80004E40895EC44B4ACA571F429EC6C8CDCF3D
:101B90004F8F430000000000000000000000000024
:101BA0000102030406070809C81B00080000002002
:101BB0002800000084190008F01B000828000020FD
:101BC0004004000094190008000000000000803F5D
:101BD0009A99993E0F0001020300000000000000E6
:101BE0000100000010000000000000000024F400CC
:04000005080000ED02
:00000001FF
